{
  "contractName": "Lottery",
  "abi": [
    {
      "anonymous": false,
      "inputs": [
        {
          "indexed": false,
          "internalType": "uint256",
          "name": "raffleId",
          "type": "uint256"
        },
        {
          "indexed": false,
          "internalType": "address",
          "name": "host",
          "type": "address"
        },
        {
          "indexed": false,
          "internalType": "uint256",
          "name": "entryFee",
          "type": "uint256"
        },
        {
          "indexed": false,
          "internalType": "uint256",
          "name": "deadline",
          "type": "uint256"
        }
      ],
      "name": "RaffleCreated",
      "type": "event"
    },
    {
      "anonymous": false,
      "inputs": [
        {
          "indexed": false,
          "internalType": "uint256",
          "name": "raffleId",
          "type": "uint256"
        },
        {
          "indexed": false,
          "internalType": "address",
          "name": "participant",
          "type": "address"
        }
      ],
      "name": "TicketPurchased",
      "type": "event"
    },
    {
      "anonymous": false,
      "inputs": [
        {
          "indexed": false,
          "internalType": "uint256",
          "name": "raffleId",
          "type": "uint256"
        },
        {
          "indexed": false,
          "internalType": "address",
          "name": "winner",
          "type": "address"
        },
        {
          "indexed": false,
          "internalType": "uint256",
          "name": "prize",
          "type": "uint256"
        }
      ],
      "name": "WinnerDrawn",
      "type": "event"
    },
    {
      "inputs": [],
      "name": "raffleCount",
      "outputs": [
        {
          "internalType": "uint256",
          "name": "",
          "type": "uint256"
        }
      ],
      "stateMutability": "view",
      "type": "function",
      "constant": true
    },
    {
      "inputs": [
        {
          "internalType": "uint256",
          "name": "",
          "type": "uint256"
        }
      ],
      "name": "raffles",
      "outputs": [
        {
          "internalType": "address",
          "name": "host",
          "type": "address"
        },
        {
          "internalType": "uint256",
          "name": "entryFee",
          "type": "uint256"
        },
        {
          "internalType": "uint256",
          "name": "prizePool",
          "type": "uint256"
        },
        {
          "internalType": "uint256",
          "name": "ticketCount",
          "type": "uint256"
        },
        {
          "internalType": "uint256",
          "name": "deadline",
          "type": "uint256"
        },
        {
          "internalType": "bool",
          "name": "isActive",
          "type": "bool"
        }
      ],
      "stateMutability": "view",
      "type": "function",
      "constant": true
    },
    {
      "inputs": [
        {
          "internalType": "uint256",
          "name": "_entryFee",
          "type": "uint256"
        },
        {
          "internalType": "uint256",
          "name": "_duration",
          "type": "uint256"
        }
      ],
      "name": "createRaffle",
      "outputs": [],
      "stateMutability": "nonpayable",
      "type": "function"
    },
    {
      "inputs": [
        {
          "internalType": "uint256",
          "name": "_raffleId",
          "type": "uint256"
        }
      ],
      "name": "buyTicket",
      "outputs": [],
      "stateMutability": "payable",
      "type": "function",
      "payable": true
    },
    {
      "inputs": [
        {
          "internalType": "uint256",
          "name": "_raffleId",
          "type": "uint256"
        }
      ],
      "name": "drawWinner",
      "outputs": [],
      "stateMutability": "nonpayable",
      "type": "function"
    },
    {
      "inputs": [
        {
          "internalType": "uint256",
          "name": "_raffleId",
          "type": "uint256"
        }
      ],
      "name": "getRaffleDetails",
      "outputs": [
        {
          "internalType": "address",
          "name": "host",
          "type": "address"
        },
        {
          "internalType": "uint256",
          "name": "entryFee",
          "type": "uint256"
        },
        {
          "internalType": "uint256",
          "name": "prizePool",
          "type": "uint256"
        },
        {
          "internalType": "uint256",
          "name": "ticketCount",
          "type": "uint256"
        },
        {
          "internalType": "uint256",
          "name": "deadline",
          "type": "uint256"
        },
        {
          "internalType": "bool",
          "name": "isActive",
          "type": "bool"
        }
      ],
      "stateMutability": "view",
      "type": "function",
      "constant": true
    },
    {
      "inputs": [
        {
          "internalType": "uint256",
          "name": "_raffleId",
          "type": "uint256"
        }
      ],
      "name": "ownerRaffleView",
      "outputs": [
        {
          "internalType": "uint256",
          "name": "prizePool",
          "type": "uint256"
        },
        {
          "internalType": "uint256",
          "name": "ticketCount",
          "type": "uint256"
        },
        {
          "internalType": "uint256",
          "name": "deadline",
          "type": "uint256"
        }
      ],
      "stateMutability": "view",
      "type": "function",
      "constant": true
    }
  ],
  "bytecode": "0x608060405234801561001057600080fd5b5061169b806100206000396000f3fe6080604052600436106100705760003560e01c806367dd74ca1161004e57806367dd74ca1461011f578063a080dffe1461013b578063a54c120c1461017d578063efeb9ac6146101a857610070565b8063591e15ef146100755780635d4bc0ce146100b457806360b2a56a146100f6575b600080fd5b34801561008157600080fd5b5061009c60048036038101906100979190610d48565b6101d1565b6040516100ab939291906113aa565b60405180910390f35b3480156100c057600080fd5b506100db60048036038101906100d69190610d48565b6102ae565b6040516100ed96959493929190611112565b60405180910390f35b34801561010257600080fd5b5061011d60048036038101906101189190610d48565b610317565b005b61013960048036038101906101349190610d48565b6107a2565b005b34801561014757600080fd5b50610162600480360381019061015d9190610d48565b610add565b60405161017496959493929190611112565b60405180910390f35b34801561018957600080fd5b50610192610b5d565b60405161019f91906112b3565b60405180910390f35b3480156101b457600080fd5b506101cf60048036038101906101ca9190610d71565b610b63565b005b60008060008360008082815260200190815260200160002060000160009054906101000a900473ffffffffffffffffffffffffffffffffffffffff1673ffffffffffffffffffffffffffffffffffffffff163373ffffffffffffffffffffffffffffffffffffffff161461027a576040517f08c379a0000000000000000000000000000000000000000000000000000000008152600401610271906111f3565b60405180910390fd5b6000806000878152602001908152602001600020905080600201548160030154826004015494509450945050509193909250565b60006020528060005260406000206000915090508060000160009054906101000a900473ffffffffffffffffffffffffffffffffffffffff16908060010154908060020154908060030154908060040154908060060160009054906101000a900460ff16905086565b8060008082815260200190815260200160002060060160009054906101000a900460ff1661037a576040517f08c379a000000000000000000000000000000000000000000000000000000000815260040161037190611273565b60405180910390fd5b81600080828152602001908152602001600020600401544210156103d3576040517f08c379a00000000000000000000000000000000000000000000000000000000081526004016103ca90611213565b60405180910390fd5b8260008082815260200190815260200160002060000160009054906101000a900473ffffffffffffffffffffffffffffffffffffffff1673ffffffffffffffffffffffffffffffffffffffff163373ffffffffffffffffffffffffffffffffffffffff1614610477576040517f08c379a000000000000000000000000000000000000000000000000000000000815260040161046e906111f3565b60405180910390fd5b600080600086815260200190815260200160002090506000816005018054905014156104fc5760008160060160006101000a81548160ff0219169083151502179055507f9c1e776cbdf221420917b223eb09503e61c8e990a1c09065cbf15bdff06a555e856000806040516104ee939291906112f7565b60405180910390a15061079c565b600061050e8260050180549050610cb3565b9050600082600501828154811061054e577f4e487b7100000000000000000000000000000000000000000000000000000000600052603260045260246000fd5b9060005260206000200160009054906101000a900473ffffffffffffffffffffffffffffffffffffffff16905060006064601485600201546105909190611484565b61059a9190611453565b905060008185600201546105ae91906114de565b905060008373ffffffffffffffffffffffffffffffffffffffff16826040516105d6906110c0565b60006040518083038185875af1925050503d8060008114610613576040519150601f19603f3d011682016040523d82523d6000602084013e610618565b606091505b505090508061065c576040517f08c379a000000000000000000000000000000000000000000000000000000000815260040161065390611253565b60405180910390fd5b60008660000160009054906101000a900473ffffffffffffffffffffffffffffffffffffffff1673ffffffffffffffffffffffffffffffffffffffff16846040516106a6906110c0565b60006040518083038185875af1925050503d80600081146106e3576040519150601f19603f3d011682016040523d82523d6000602084013e6106e8565b606091505b505090508061072c576040517f08c379a000000000000000000000000000000000000000000000000000000000815260040161072390611233565b60405180910390fd5b7f9c1e776cbdf221420917b223eb09503e61c8e990a1c09065cbf15bdff06a555e8b868560405161075f9392919061132e565b60405180910390a160008760060160006101000a81548160ff0219169083151502179055508660050160006107949190610cf5565b505050505050505b50505050565b8060008082815260200190815260200160002060060160009054906101000a900460ff16610805576040517f08c379a00000000000000000000000000000000000000000000000000000000081526004016107fc90611273565b60405180910390fd5b8160008082815260200190815260200160002060040154421061085d576040517f08c379a0000000000000000000000000000000000000000000000000000000008152600401610854906111b3565b60405180910390fd5b678ac7230489e800003411156108a8576040517f08c379a000000000000000000000000000000000000000000000000000000000815260040161089f906111d3565b60405180910390fd5b6000806000858152602001908152602001600020905080600101543414610904576040517f08c379a00000000000000000000000000000000000000000000000000000000081526004016108fb90611193565b60405180910390fd5b600060646005346109159190611484565b61091f9190611453565b90506000813461092f91906114de565b905082600501339080600181540180825580915050600190039060005260206000200160009091909190916101000a81548173ffffffffffffffffffffffffffffffffffffffff021916908373ffffffffffffffffffffffffffffffffffffffff1602179055508260030160008154809291906109ab9061156c565b9190505550808360020160008282546109c491906113fd565b9250508190555060008360000160009054906101000a900473ffffffffffffffffffffffffffffffffffffffff1673ffffffffffffffffffffffffffffffffffffffff1683604051610a15906110c0565b60006040518083038185875af1925050503d8060008114610a52576040519150601f19603f3d011682016040523d82523d6000602084013e610a57565b606091505b5050905080610a9b576040517f08c379a0000000000000000000000000000000000000000000000000000000008152600401610a9290611173565b60405180910390fd5b7f785f2865353ae960010300f584fc6c577b757a853af69a99c769df3c8232d3de8733604051610acc9291906112ce565b60405180910390a150505050505050565b600080600080600080600080600089815260200190815260200160002090508060000160009054906101000a900473ffffffffffffffffffffffffffffffffffffffff1681600101548260020154836003015484600401548560060160009054906101000a900460ff169650965096509650965096505091939550919395565b60015481565b60008211610ba6576040517f08c379a0000000000000000000000000000000000000000000000000000000008152600401610b9d90611293565b60405180910390fd5b60016000815480929190610bb99061156c565b91905055506000600154905060008060008381526020019081526020016000209050338160000160006101000a81548173ffffffffffffffffffffffffffffffffffffffff021916908373ffffffffffffffffffffffffffffffffffffffff16021790555083816001018190555060008160020181905550600081600301819055508242610c4791906113fd565b816004018190555060018160060160006101000a81548160ff0219169083151502179055507f71f77ac840b74f30ac7115cc2fca45c4157ccc2b0a6e72f4183c587d77baa0ab8233868460040154604051610ca59493929190611365565b60405180910390a150505050565b600081444284604051602001610ccb939291906110d5565b6040516020818303038152906040528051906020012060001c610cee91906115bf565b9050919050565b5080546000825590600052602060002090810190610d139190610d16565b50565b5b80821115610d2f576000816000905550600101610d17565b5090565b600081359050610d428161164e565b92915050565b600060208284031215610d5a57600080fd5b6000610d6884828501610d33565b91505092915050565b60008060408385031215610d8457600080fd5b6000610d9285828601610d33565b9250506020610da385828601610d33565b9150509250929050565b610db681611512565b82525050565b610dc581611524565b82525050565b610dd48161155a565b82525050565b6000610de76018836113ec565b91507f486f737420666565207472616e73666572206661696c656400000000000000006000830152602082019050919050565b6000610e276012836113ec565b91507f496e636f7272656374204554482073656e7400000000000000000000000000006000830152602082019050919050565b6000610e676012836113ec565b91507f526166666c6520686173206578706972656400000000000000000000000000006000830152602082019050919050565b6000610ea7602b836113ec565b91507f5469636b65742070757263686173652065786365656473206d6178206c696d6960008301527f742028302e3120455448290000000000000000000000000000000000000000006020830152604082019050919050565b6000610f0d6013836113ec565b91507f4e6f742074686520726166666c6520686f7374000000000000000000000000006000830152602082019050919050565b6000610f4d6016836113ec565b91507f526166666c65206973207374696c6c20616374697665000000000000000000006000830152602082019050919050565b6000610f8d6017836113ec565b91507f486f737420666565207061796d656e74206661696c65640000000000000000006000830152602082019050919050565b6000610fcd6015836113ec565b91507f57696e6e6572207061796d656e74206661696c656400000000000000000000006000830152602082019050919050565b600061100d6014836113ec565b91507f526166666c65206973206e6f74206163746976650000000000000000000000006000830152602082019050919050565b600061104d6000836113e1565b9150600082019050919050565b60006110676020836113ec565b91507f456e74727920666565206d7573742062652067726561746572207468616e20306000830152602082019050919050565b6110a381611550565b82525050565b6110ba6110b582611550565b6115b5565b82525050565b60006110cb82611040565b9150819050919050565b60006110e182866110a9565b6020820191506110f182856110a9565b60208201915061110182846110a9565b602082019150819050949350505050565b600060c0820190506111276000830189610dad565b611134602083018861109a565b611141604083018761109a565b61114e606083018661109a565b61115b608083018561109a565b61116860a0830184610dbc565b979650505050505050565b6000602082019050818103600083015261118c81610dda565b9050919050565b600060208201905081810360008301526111ac81610e1a565b9050919050565b600060208201905081810360008301526111cc81610e5a565b9050919050565b600060208201905081810360008301526111ec81610e9a565b9050919050565b6000602082019050818103600083015261120c81610f00565b9050919050565b6000602082019050818103600083015261122c81610f40565b9050919050565b6000602082019050818103600083015261124c81610f80565b9050919050565b6000602082019050818103600083015261126c81610fc0565b9050919050565b6000602082019050818103600083015261128c81611000565b9050919050565b600060208201905081810360008301526112ac8161105a565b9050919050565b60006020820190506112c8600083018461109a565b92915050565b60006040820190506112e3600083018561109a565b6112f06020830184610dad565b9392505050565b600060608201905061130c600083018661109a565b6113196020830185610dad565b6113266040830184610dcb565b949350505050565b6000606082019050611343600083018661109a565b6113506020830185610dad565b61135d604083018461109a565b949350505050565b600060808201905061137a600083018761109a565b6113876020830186610dad565b611394604083018561109a565b6113a1606083018461109a565b95945050505050565b60006060820190506113bf600083018661109a565b6113cc602083018561109a565b6113d9604083018461109a565b949350505050565b600081905092915050565b600082825260208201905092915050565b600061140882611550565b915061141383611550565b9250827fffffffffffffffffffffffffffffffffffffffffffffffffffffffffffffffff03821115611448576114476115f0565b5b828201905092915050565b600061145e82611550565b915061146983611550565b9250826114795761147861161f565b5b828204905092915050565b600061148f82611550565b915061149a83611550565b9250817fffffffffffffffffffffffffffffffffffffffffffffffffffffffffffffffff04831182151516156114d3576114d26115f0565b5b828202905092915050565b60006114e982611550565b91506114f483611550565b925082821015611507576115066115f0565b5b828203905092915050565b600061151d82611530565b9050919050565b60008115159050919050565b600073ffffffffffffffffffffffffffffffffffffffff82169050919050565b6000819050919050565b600061156582611550565b9050919050565b600061157782611550565b91507fffffffffffffffffffffffffffffffffffffffffffffffffffffffffffffffff8214156115aa576115a96115f0565b5b600182019050919050565b6000819050919050565b60006115ca82611550565b91506115d583611550565b9250826115e5576115e461161f565b5b828206905092915050565b7f4e487b7100000000000000000000000000000000000000000000000000000000600052601160045260246000fd5b7f4e487b7100000000000000000000000000000000000000000000000000000000600052601260045260246000fd5b61165781611550565b811461166257600080fd5b5056fea2646970667358221220c7cdf9f10b7bfcedb41224cb55c33da13aaceb378cfcbb68ecf0d4eed2c78e6d64736f6c63430008000033",
  "immutableReferences": {},
  "source": "// SPDX-License-Identifier: MIT\n\npragma solidity 0.8.0;\n\ncontract Lottery {\n\n    struct Raffle {\n        address host;\n        uint256 entryFee; // Entry fee in wei\n        uint256 prizePool; // Prize pool in wei\n        uint256 ticketCount; // Count of tickets sold\n        uint256 deadline; // Timestamp for raffle expiry\n        address[] participants; // List of participants\n        bool isActive; // Status of the raffle\n    }\n\n    mapping(uint256 => Raffle) public raffles; // Mapping of raffle ID to Raffle struct\n    uint256 public raffleCount; // Counter for raffle IDs\n\n    // Maximum amount a user can spend on tickets (0.1 ETH)\n    uint256 constant MAX_TICKET_PURCHASE = 10 ether;\n\n    // A fee percentage the host takes as profit (e.g., 5%)\n    uint256 constant HOST_FEE_PERCENTAGE = 5;\n\n    // Event declarations\n    event RaffleCreated(uint256 raffleId, address host, uint256 entryFee, uint256 deadline);\n    event TicketPurchased(uint256 raffleId, address participant);\n    event WinnerDrawn(uint256 raffleId, address winner, uint256 prize);\n\n    modifier onlyHost(uint256 _raffleId) {\n        require(msg.sender == raffles[_raffleId].host, \"Not the raffle host\");\n        _;\n    }\n\n    modifier raffleActive(uint256 _raffleId) {\n        require(raffles[_raffleId].isActive, \"Raffle is not active\");\n        _;\n    }\n\n    modifier raffleNotExpired(uint256 _raffleId) {\n        require(block.timestamp < raffles[_raffleId].deadline, \"Raffle has expired\");\n        _;\n    }\n\n    modifier raffleExpired(uint256 _raffleId) {\n        require(block.timestamp >= raffles[_raffleId].deadline, \"Raffle is still active\");\n        _;\n    }\n\n    modifier underMaxTicketPurchase() {\n        require(msg.value <= MAX_TICKET_PURCHASE, \"Ticket purchase exceeds max limit (0.1 ETH)\");\n        _;\n    }\n\n    // Create a new raffle\n    function createRaffle(uint256 _entryFee, uint256 _duration) external {\n        require(_entryFee > 0, \"Entry fee must be greater than 0\");\n\n        raffleCount++;\n        uint256 raffleId = raffleCount;\n\n        Raffle storage newRaffle = raffles[raffleId];\n        newRaffle.host = msg.sender;\n        newRaffle.entryFee = _entryFee; // Entry fee is in wei\n        newRaffle.prizePool = 0;\n        newRaffle.ticketCount = 0;\n        newRaffle.deadline = block.timestamp + _duration;\n        newRaffle.isActive = true;\n\n        emit RaffleCreated(raffleId, msg.sender, _entryFee, newRaffle.deadline);\n    }\n\n\n    // Buy a ticket for a raffle\n    function buyTicket(uint256 _raffleId) external payable raffleActive(_raffleId) raffleNotExpired(_raffleId) underMaxTicketPurchase {\n        Raffle storage raffle = raffles[_raffleId];\n        require(msg.value == raffle.entryFee, \"Incorrect ETH sent\");\n\n        // Calculate host's profit\n        uint256 hostFee = (msg.value * HOST_FEE_PERCENTAGE) / 100;\n        uint256 prizeAmount = msg.value - hostFee;\n\n        // Add participant\n        raffle.participants.push(msg.sender);\n        raffle.ticketCount++;\n        raffle.prizePool += prizeAmount;\n\n        // Transfer the host fee to the host\n        (bool success, ) = raffle.host.call{value: hostFee}(\"\");\n        require(success, \"Host fee transfer failed\");\n\n        emit TicketPurchased(_raffleId, msg.sender);\n    }\n\n    // Draw a random winner for the raffle once it has expired\n    // Modified drawWinner with host's 20% cut for winningss\n    function drawWinner(uint256 _raffleId) external raffleActive(_raffleId) raffleExpired(_raffleId) onlyHost(_raffleId) {\n        Raffle storage raffle = raffles[_raffleId];\n\n        if (raffle.participants.length == 0) {\n            // No participants, deactivate the raffle\n            raffle.isActive = false;\n            emit WinnerDrawn(_raffleId, address(0), 0); // No winner, prize is 0\n            return;\n        }\n\n        // Pick a random winner\n        uint256 winnerIndex = random(raffle.participants.length);\n        address winner = raffle.participants[winnerIndex];\n\n        // Calculate prize distribution\n        uint256 hostShare = (raffle.prizePool * 20) / 100;\n        uint256 winnerPrize = raffle.prizePool - hostShare;\n\n        // Transfer prize to winner and fee to host\n        (bool winnerPaid, ) = payable(winner).call{value: winnerPrize}(\"\");\n        require(winnerPaid, \"Winner payment failed\");\n\n        (bool hostPaid, ) = payable(raffle.host).call{value: hostShare}(\"\");\n        require(hostPaid, \"Host fee payment failed\");\n\n        emit WinnerDrawn(_raffleId, winner, winnerPrize);\n\n        // Close raffle\n        raffle.isActive = false;\n        delete raffle.participants;\n    }\n\n    // Get details of a raffle\n    function getRaffleDetails(uint256 _raffleId) external view returns (address host, uint256 entryFee, uint256 prizePool, uint256 ticketCount, uint256 deadline, bool isActive) {\n        Raffle storage raffle = raffles[_raffleId];\n        return (raffle.host, raffle.entryFee, raffle.prizePool, raffle.ticketCount, raffle.deadline, raffle.isActive);\n    }\n\n    // View the owner's details for a specific raffle\n    function ownerRaffleView(uint256 _raffleId) external view onlyHost(_raffleId) returns (uint256 prizePool, uint256 ticketCount, uint256 deadline) {\n        Raffle storage raffle = raffles[_raffleId];\n        return (raffle.prizePool, raffle.ticketCount, raffle.deadline);\n    }\n\n    // Pseudo-random number generator (for simplicity, use blockhash and timestamp)\n    function random(uint256 _limit) private view returns (uint256) {\n        return uint256(keccak256(abi.encodePacked(block.difficulty, block.timestamp, _limit))) % _limit;\n    }\n}\n",
  "sourcePath": "/home/j/Desktop/luckyledger/contracts/Lottery.sol",
  "compiler": {
    "name": "solc",
    "version": "0.8.0+commit.c7dfd78e.Emscripten.clang"
  },
  "schemaVersion": "3.4.16",
  "updatedAt": "2024-11-24T18:42:17.702Z",
  "networkType": "ethereum",
  "devdoc": {
    "kind": "dev",
    "methods": {},
    "version": 1
  },
  "userdoc": {
    "kind": "user",
    "methods": {},
    "version": 1
  }
}