{
  "contractName": "Lottery",
  "abi": [
    {
      "anonymous": false,
      "inputs": [
        {
          "indexed": false,
          "internalType": "uint256",
          "name": "raffleId",
          "type": "uint256"
        },
        {
          "indexed": false,
          "internalType": "address",
          "name": "host",
          "type": "address"
        },
        {
          "indexed": false,
          "internalType": "uint256",
          "name": "entryFee",
          "type": "uint256"
        },
        {
          "indexed": false,
          "internalType": "uint256",
          "name": "deadline",
          "type": "uint256"
        }
      ],
      "name": "RaffleCreated",
      "type": "event"
    },
    {
      "anonymous": false,
      "inputs": [
        {
          "indexed": false,
          "internalType": "uint256",
          "name": "raffleId",
          "type": "uint256"
        },
        {
          "indexed": false,
          "internalType": "address",
          "name": "participant",
          "type": "address"
        }
      ],
      "name": "TicketPurchased",
      "type": "event"
    },
    {
      "anonymous": false,
      "inputs": [
        {
          "indexed": false,
          "internalType": "uint256",
          "name": "raffleId",
          "type": "uint256"
        },
        {
          "indexed": false,
          "internalType": "address",
          "name": "winner",
          "type": "address"
        },
        {
          "indexed": false,
          "internalType": "uint256",
          "name": "prize",
          "type": "uint256"
        }
      ],
      "name": "WinnerDrawn",
      "type": "event"
    },
    {
      "inputs": [],
      "name": "raffleCount",
      "outputs": [
        {
          "internalType": "uint256",
          "name": "",
          "type": "uint256"
        }
      ],
      "stateMutability": "view",
      "type": "function",
      "constant": true
    },
    {
      "inputs": [
        {
          "internalType": "uint256",
          "name": "",
          "type": "uint256"
        }
      ],
      "name": "raffles",
      "outputs": [
        {
          "internalType": "address",
          "name": "host",
          "type": "address"
        },
        {
          "internalType": "uint256",
          "name": "entryFee",
          "type": "uint256"
        },
        {
          "internalType": "uint256",
          "name": "prizePool",
          "type": "uint256"
        },
        {
          "internalType": "uint256",
          "name": "ticketCount",
          "type": "uint256"
        },
        {
          "internalType": "uint256",
          "name": "deadline",
          "type": "uint256"
        },
        {
          "internalType": "bool",
          "name": "isActive",
          "type": "bool"
        }
      ],
      "stateMutability": "view",
      "type": "function",
      "constant": true
    },
    {
      "inputs": [
        {
          "internalType": "uint256",
          "name": "_entryFee",
          "type": "uint256"
        },
        {
          "internalType": "uint256",
          "name": "_duration",
          "type": "uint256"
        }
      ],
      "name": "createRaffle",
      "outputs": [],
      "stateMutability": "nonpayable",
      "type": "function"
    },
    {
      "inputs": [
        {
          "internalType": "uint256",
          "name": "_raffleId",
          "type": "uint256"
        }
      ],
      "name": "buyTicket",
      "outputs": [],
      "stateMutability": "payable",
      "type": "function",
      "payable": true
    },
    {
      "inputs": [
        {
          "internalType": "uint256",
          "name": "_raffleId",
          "type": "uint256"
        }
      ],
      "name": "drawWinner",
      "outputs": [],
      "stateMutability": "nonpayable",
      "type": "function"
    },
    {
      "inputs": [
        {
          "internalType": "uint256",
          "name": "_raffleId",
          "type": "uint256"
        }
      ],
      "name": "getRaffleDetails",
      "outputs": [
        {
          "internalType": "address",
          "name": "host",
          "type": "address"
        },
        {
          "internalType": "uint256",
          "name": "entryFee",
          "type": "uint256"
        },
        {
          "internalType": "uint256",
          "name": "prizePool",
          "type": "uint256"
        },
        {
          "internalType": "uint256",
          "name": "ticketCount",
          "type": "uint256"
        },
        {
          "internalType": "uint256",
          "name": "deadline",
          "type": "uint256"
        },
        {
          "internalType": "bool",
          "name": "isActive",
          "type": "bool"
        }
      ],
      "stateMutability": "view",
      "type": "function",
      "constant": true
    },
    {
      "inputs": [
        {
          "internalType": "uint256",
          "name": "_raffleId",
          "type": "uint256"
        }
      ],
      "name": "ownerRaffleView",
      "outputs": [
        {
          "internalType": "uint256",
          "name": "prizePool",
          "type": "uint256"
        },
        {
          "internalType": "uint256",
          "name": "ticketCount",
          "type": "uint256"
        },
        {
          "internalType": "uint256",
          "name": "deadline",
          "type": "uint256"
        }
      ],
      "stateMutability": "view",
      "type": "function",
      "constant": true
    }
  ],
  "bytecode": "0x608060405234801561001057600080fd5b5061167d806100206000396000f3fe6080604052600436106100705760003560e01c806367dd74ca1161004e57806367dd74ca1461011f578063a080dffe1461013b578063a54c120c1461017d578063efeb9ac6146101a857610070565b8063591e15ef146100755780635d4bc0ce146100b457806360b2a56a146100f6575b600080fd5b34801561008157600080fd5b5061009c60048036038101906100979190610d22565b6101d1565b6040516100ab9392919061139e565b60405180910390f35b3480156100c057600080fd5b506100db60048036038101906100d69190610d22565b6102ae565b6040516100ed9695949392919061111d565b60405180910390f35b34801561010257600080fd5b5061011d60048036038101906101189190610d22565b610317565b005b61013960048036038101906101349190610d22565b61077c565b005b34801561014757600080fd5b50610162600480360381019061015d9190610d22565b610ab7565b6040516101749695949392919061111d565b60405180910390f35b34801561018957600080fd5b50610192610b37565b60405161019f91906112de565b60405180910390f35b3480156101b457600080fd5b506101cf60048036038101906101ca9190610d4b565b610b3d565b005b60008060008360008082815260200190815260200160002060000160009054906101000a900473ffffffffffffffffffffffffffffffffffffffff1673ffffffffffffffffffffffffffffffffffffffff163373ffffffffffffffffffffffffffffffffffffffff161461027a576040517f08c379a0000000000000000000000000000000000000000000000000000000008152600401610271906111fe565b60405180910390fd5b6000806000878152602001908152602001600020905080600201548160030154826004015494509450945050509193909250565b60006020528060005260406000206000915090508060000160009054906101000a900473ffffffffffffffffffffffffffffffffffffffff16908060010154908060020154908060030154908060040154908060060160009054906101000a900460ff16905086565b8060008082815260200190815260200160002060060160009054906101000a900460ff1661037a576040517f08c379a00000000000000000000000000000000000000000000000000000000081526004016103719061127e565b60405180910390fd5b81600080828152602001908152602001600020600401544210156103d3576040517f08c379a00000000000000000000000000000000000000000000000000000000081526004016103ca9061121e565b60405180910390fd5b8260008082815260200190815260200160002060000160009054906101000a900473ffffffffffffffffffffffffffffffffffffffff1673ffffffffffffffffffffffffffffffffffffffff163373ffffffffffffffffffffffffffffffffffffffff1614610477576040517f08c379a000000000000000000000000000000000000000000000000000000000815260040161046e906111fe565b60405180910390fd5b6000806000868152602001908152602001600020905060008160050180549050116104d7576040517f08c379a00000000000000000000000000000000000000000000000000000000081526004016104ce9061129e565b60405180910390fd5b60006104e98260050180549050610c8d565b90506000826005018281548110610529577f4e487b7100000000000000000000000000000000000000000000000000000000600052603260045260246000fd5b9060005260206000200160009054906101000a900473ffffffffffffffffffffffffffffffffffffffff169050600060646014856002015461056b9190611478565b6105759190611447565b9050600081856002015461058991906114d2565b905060008373ffffffffffffffffffffffffffffffffffffffff16826040516105b1906110cb565b60006040518083038185875af1925050503d80600081146105ee576040519150601f19603f3d011682016040523d82523d6000602084013e6105f3565b606091505b5050905080610637576040517f08c379a000000000000000000000000000000000000000000000000000000000815260040161062e9061125e565b60405180910390fd5b60008660000160009054906101000a900473ffffffffffffffffffffffffffffffffffffffff1673ffffffffffffffffffffffffffffffffffffffff1684604051610681906110cb565b60006040518083038185875af1925050503d80600081146106be576040519150601f19603f3d011682016040523d82523d6000602084013e6106c3565b606091505b5050905080610707576040517f08c379a00000000000000000000000000000000000000000000000000000000081526004016106fe9061123e565b60405180910390fd5b7f9c1e776cbdf221420917b223eb09503e61c8e990a1c09065cbf15bdff06a555e8b868560405161073a93929190611322565b60405180910390a160008760060160006101000a81548160ff02191690831515021790555086600501600061076f9190610ccf565b5050505050505050505050565b8060008082815260200190815260200160002060060160009054906101000a900460ff166107df576040517f08c379a00000000000000000000000000000000000000000000000000000000081526004016107d69061127e565b60405180910390fd5b81600080828152602001908152602001600020600401544210610837576040517f08c379a000000000000000000000000000000000000000000000000000000000815260040161082e906111be565b60405180910390fd5b67016345785d8a0000341115610882576040517f08c379a0000000000000000000000000000000000000000000000000000000008152600401610879906111de565b60405180910390fd5b60008060008581526020019081526020016000209050806001015434146108de576040517f08c379a00000000000000000000000000000000000000000000000000000000081526004016108d59061119e565b60405180910390fd5b600060646005346108ef9190611478565b6108f99190611447565b90506000813461090991906114d2565b905082600501339080600181540180825580915050600190039060005260206000200160009091909190916101000a81548173ffffffffffffffffffffffffffffffffffffffff021916908373ffffffffffffffffffffffffffffffffffffffff1602179055508260030160008154809291906109859061154e565b91905055508083600201600082825461099e91906113f1565b9250508190555060008360000160009054906101000a900473ffffffffffffffffffffffffffffffffffffffff1673ffffffffffffffffffffffffffffffffffffffff16836040516109ef906110cb565b60006040518083038185875af1925050503d8060008114610a2c576040519150601f19603f3d011682016040523d82523d6000602084013e610a31565b606091505b5050905080610a75576040517f08c379a0000000000000000000000000000000000000000000000000000000008152600401610a6c9061117e565b60405180910390fd5b7f785f2865353ae960010300f584fc6c577b757a853af69a99c769df3c8232d3de8733604051610aa69291906112f9565b60405180910390a150505050505050565b600080600080600080600080600089815260200190815260200160002090508060000160009054906101000a900473ffffffffffffffffffffffffffffffffffffffff1681600101548260020154836003015484600401548560060160009054906101000a900460ff169650965096509650965096505091939550919395565b60015481565b60008211610b80576040517f08c379a0000000000000000000000000000000000000000000000000000000008152600401610b77906112be565b60405180910390fd5b60016000815480929190610b939061154e565b91905055506000600154905060008060008381526020019081526020016000209050338160000160006101000a81548173ffffffffffffffffffffffffffffffffffffffff021916908373ffffffffffffffffffffffffffffffffffffffff16021790555083816001018190555060008160020181905550600081600301819055508242610c2191906113f1565b816004018190555060018160060160006101000a81548160ff0219169083151502179055507f71f77ac840b74f30ac7115cc2fca45c4157ccc2b0a6e72f4183c587d77baa0ab8233868460040154604051610c7f9493929190611359565b60405180910390a150505050565b600081444284604051602001610ca5939291906110e0565b6040516020818303038152906040528051906020012060001c610cc891906115a1565b9050919050565b5080546000825590600052602060002090810190610ced9190610cf0565b50565b5b80821115610d09576000816000905550600101610cf1565b5090565b600081359050610d1c81611630565b92915050565b600060208284031215610d3457600080fd5b6000610d4284828501610d0d565b91505092915050565b60008060408385031215610d5e57600080fd5b6000610d6c85828601610d0d565b9250506020610d7d85828601610d0d565b9150509250929050565b610d9081611506565b82525050565b610d9f81611518565b82525050565b6000610db26018836113e0565b91507f486f737420666565207472616e73666572206661696c656400000000000000006000830152602082019050919050565b6000610df26012836113e0565b91507f496e636f7272656374204554482073656e7400000000000000000000000000006000830152602082019050919050565b6000610e326012836113e0565b91507f526166666c6520686173206578706972656400000000000000000000000000006000830152602082019050919050565b6000610e72602b836113e0565b91507f5469636b65742070757263686173652065786365656473206d6178206c696d6960008301527f742028302e3120455448290000000000000000000000000000000000000000006020830152604082019050919050565b6000610ed86013836113e0565b91507f4e6f742074686520726166666c6520686f7374000000000000000000000000006000830152602082019050919050565b6000610f186016836113e0565b91507f526166666c65206973207374696c6c20616374697665000000000000000000006000830152602082019050919050565b6000610f586017836113e0565b91507f486f737420666565207061796d656e74206661696c65640000000000000000006000830152602082019050919050565b6000610f986015836113e0565b91507f57696e6e6572207061796d656e74206661696c656400000000000000000000006000830152602082019050919050565b6000610fd86014836113e0565b91507f526166666c65206973206e6f74206163746976650000000000000000000000006000830152602082019050919050565b60006110186000836113d5565b9150600082019050919050565b6000611032601d836113e0565b91507f4e6f207061727469636970616e747320696e2074686520726166666c650000006000830152602082019050919050565b60006110726020836113e0565b91507f456e74727920666565206d7573742062652067726561746572207468616e20306000830152602082019050919050565b6110ae81611544565b82525050565b6110c56110c082611544565b611597565b82525050565b60006110d68261100b565b9150819050919050565b60006110ec82866110b4565b6020820191506110fc82856110b4565b60208201915061110c82846110b4565b602082019150819050949350505050565b600060c0820190506111326000830189610d87565b61113f60208301886110a5565b61114c60408301876110a5565b61115960608301866110a5565b61116660808301856110a5565b61117360a0830184610d96565b979650505050505050565b6000602082019050818103600083015261119781610da5565b9050919050565b600060208201905081810360008301526111b781610de5565b9050919050565b600060208201905081810360008301526111d781610e25565b9050919050565b600060208201905081810360008301526111f781610e65565b9050919050565b6000602082019050818103600083015261121781610ecb565b9050919050565b6000602082019050818103600083015261123781610f0b565b9050919050565b6000602082019050818103600083015261125781610f4b565b9050919050565b6000602082019050818103600083015261127781610f8b565b9050919050565b6000602082019050818103600083015261129781610fcb565b9050919050565b600060208201905081810360008301526112b781611025565b9050919050565b600060208201905081810360008301526112d781611065565b9050919050565b60006020820190506112f360008301846110a5565b92915050565b600060408201905061130e60008301856110a5565b61131b6020830184610d87565b9392505050565b600060608201905061133760008301866110a5565b6113446020830185610d87565b61135160408301846110a5565b949350505050565b600060808201905061136e60008301876110a5565b61137b6020830186610d87565b61138860408301856110a5565b61139560608301846110a5565b95945050505050565b60006060820190506113b360008301866110a5565b6113c060208301856110a5565b6113cd60408301846110a5565b949350505050565b600081905092915050565b600082825260208201905092915050565b60006113fc82611544565b915061140783611544565b9250827fffffffffffffffffffffffffffffffffffffffffffffffffffffffffffffffff0382111561143c5761143b6115d2565b5b828201905092915050565b600061145282611544565b915061145d83611544565b92508261146d5761146c611601565b5b828204905092915050565b600061148382611544565b915061148e83611544565b9250817fffffffffffffffffffffffffffffffffffffffffffffffffffffffffffffffff04831182151516156114c7576114c66115d2565b5b828202905092915050565b60006114dd82611544565b91506114e883611544565b9250828210156114fb576114fa6115d2565b5b828203905092915050565b600061151182611524565b9050919050565b60008115159050919050565b600073ffffffffffffffffffffffffffffffffffffffff82169050919050565b6000819050919050565b600061155982611544565b91507fffffffffffffffffffffffffffffffffffffffffffffffffffffffffffffffff82141561158c5761158b6115d2565b5b600182019050919050565b6000819050919050565b60006115ac82611544565b91506115b783611544565b9250826115c7576115c6611601565b5b828206905092915050565b7f4e487b7100000000000000000000000000000000000000000000000000000000600052601160045260246000fd5b7f4e487b7100000000000000000000000000000000000000000000000000000000600052601260045260246000fd5b61163981611544565b811461164457600080fd5b5056fea26469706673582212207fcd90fce886d57ae0123e589bf9bbcab6fcc6cc4ef84fea5b8da8e6593385c164736f6c63430008000033",
  "immutableReferences": {},
  "source": "// SPDX-License-Identifier: MIT\n\npragma solidity 0.8.0;\n\ncontract Lottery {\n\n    struct Raffle {\n        address host;\n        uint256 entryFee; // Entry fee in wei\n        uint256 prizePool; // Prize pool in wei\n        uint256 ticketCount; // Count of tickets sold\n        uint256 deadline; // Timestamp for raffle expiry\n        address[] participants; // List of participants\n        bool isActive; // Status of the raffle\n    }\n\n    mapping(uint256 => Raffle) public raffles; // Mapping of raffle ID to Raffle struct\n    uint256 public raffleCount; // Counter for raffle IDs\n\n    // Maximum amount a user can spend on tickets (0.1 ETH)\n    uint256 constant MAX_TICKET_PURCHASE = 0.1 ether;\n\n    // A fee percentage the host takes as profit (e.g., 5%)\n    uint256 constant HOST_FEE_PERCENTAGE = 5;\n\n    // Event declarations\n    event RaffleCreated(uint256 raffleId, address host, uint256 entryFee, uint256 deadline);\n    event TicketPurchased(uint256 raffleId, address participant);\n    event WinnerDrawn(uint256 raffleId, address winner, uint256 prize);\n\n    modifier onlyHost(uint256 _raffleId) {\n        require(msg.sender == raffles[_raffleId].host, \"Not the raffle host\");\n        _;\n    }\n\n    modifier raffleActive(uint256 _raffleId) {\n        require(raffles[_raffleId].isActive, \"Raffle is not active\");\n        _;\n    }\n\n    modifier raffleNotExpired(uint256 _raffleId) {\n        require(block.timestamp < raffles[_raffleId].deadline, \"Raffle has expired\");\n        _;\n    }\n\n    modifier raffleExpired(uint256 _raffleId) {\n        require(block.timestamp >= raffles[_raffleId].deadline, \"Raffle is still active\");\n        _;\n    }\n\n    modifier underMaxTicketPurchase() {\n        require(msg.value <= MAX_TICKET_PURCHASE, \"Ticket purchase exceeds max limit (0.1 ETH)\");\n        _;\n    }\n\n    // Create a new raffle\n    function createRaffle(uint256 _entryFee, uint256 _duration) external {\n        require(_entryFee > 0, \"Entry fee must be greater than 0\");\n\n        raffleCount++;\n        uint256 raffleId = raffleCount;\n\n        Raffle storage newRaffle = raffles[raffleId];\n        newRaffle.host = msg.sender;\n        newRaffle.entryFee = _entryFee; // Entry fee is in wei\n        newRaffle.prizePool = 0;\n        newRaffle.ticketCount = 0;\n        newRaffle.deadline = block.timestamp + _duration;\n        newRaffle.isActive = true;\n\n        emit RaffleCreated(raffleId, msg.sender, _entryFee, newRaffle.deadline);\n    }\n\n\n    // Buy a ticket for a raffle\n    function buyTicket(uint256 _raffleId) external payable raffleActive(_raffleId) raffleNotExpired(_raffleId) underMaxTicketPurchase {\n        Raffle storage raffle = raffles[_raffleId];\n        require(msg.value == raffle.entryFee, \"Incorrect ETH sent\");\n\n        // Calculate host's profit\n        uint256 hostFee = (msg.value * HOST_FEE_PERCENTAGE) / 100;\n        uint256 prizeAmount = msg.value - hostFee;\n\n        // Add participant\n        raffle.participants.push(msg.sender);\n        raffle.ticketCount++;\n        raffle.prizePool += prizeAmount;\n\n        // Transfer the host fee to the host\n        (bool success, ) = raffle.host.call{value: hostFee}(\"\");\n        require(success, \"Host fee transfer failed\");\n\n        emit TicketPurchased(_raffleId, msg.sender);\n    }\n\n    // Draw a random winner for the raffle once it has expired\n    // Modified drawWinner with host's 20% cut for winningss\n    function drawWinner(uint256 _raffleId) external raffleActive(_raffleId) raffleExpired(_raffleId) onlyHost(_raffleId) {\n        Raffle storage raffle = raffles[_raffleId];\n        require(raffle.participants.length > 0, \"No participants in the raffle\");\n\n        // Pick a random winner\n        uint256 winnerIndex = random(raffle.participants.length);\n        address winner = raffle.participants[winnerIndex];\n\n        // Calculate prize distribution\n        uint256 hostShare = (raffle.prizePool * 20) / 100;\n        uint256 winnerPrize = raffle.prizePool - hostShare;\n\n        // Transfer prize to winner and fee to host\n        (bool winnerPaid, ) = payable(winner).call{value: winnerPrize}(\"\");\n        require(winnerPaid, \"Winner payment failed\");\n\n        (bool hostPaid, ) = payable(raffle.host).call{value: hostShare}(\"\");\n        require(hostPaid, \"Host fee payment failed\");\n\n        emit WinnerDrawn(_raffleId, winner, winnerPrize);\n\n        // Close raffle\n        raffle.isActive = false;\n        delete raffle.participants;\n    }\n\n\n    // Get details of a raffle\n    function getRaffleDetails(uint256 _raffleId) external view returns (address host, uint256 entryFee, uint256 prizePool, uint256 ticketCount, uint256 deadline, bool isActive) {\n        Raffle storage raffle = raffles[_raffleId];\n        return (raffle.host, raffle.entryFee, raffle.prizePool, raffle.ticketCount, raffle.deadline, raffle.isActive);\n    }\n\n    // View the owner's details for a specific raffle\n    function ownerRaffleView(uint256 _raffleId) external view onlyHost(_raffleId) returns (uint256 prizePool, uint256 ticketCount, uint256 deadline) {\n        Raffle storage raffle = raffles[_raffleId];\n        return (raffle.prizePool, raffle.ticketCount, raffle.deadline);\n    }\n\n    // Pseudo-random number generator (for simplicity, use blockhash and timestamp)\n    function random(uint256 _limit) private view returns (uint256) {\n        return uint256(keccak256(abi.encodePacked(block.difficulty, block.timestamp, _limit))) % _limit;\n    }\n}\n",
  "sourcePath": "/home/j/Desktop/luckyledger/contracts/Lottery.sol",
  "compiler": {
    "name": "solc",
    "version": "0.8.0+commit.c7dfd78e.Emscripten.clang"
  },
  "schemaVersion": "3.4.16",
  "updatedAt": "2024-11-15T05:42:35.896Z",
  "networkType": "ethereum",
  "devdoc": {
    "kind": "dev",
    "methods": {},
    "version": 1
  },
  "userdoc": {
    "kind": "user",
    "methods": {},
    "version": 1
  }
}